:100000000C9476080C949E080C949E080C949E0800
:100010000C949E080C949E080C949E080C949E08C8
:100020000C949E080C949E080C9447150C94C309DC
:100030000C949E080C949E080C949E080C949E08A8
:100040000C949E080C949E080C949E080C949E0898
:100050000C949E080C949E080C949E080C94400DE1
:100060000C949E080C949E080C949E080C949E0878
:100070000C949E080C949E080C949E080C949E0868
:100080000C949E080C949E080C949E080C949E0858
:100090000C949E080C949E080C949E080C949E0848
:1000A0000C949E080C948C120C949E0810362F4FC2
:1000B000CFEF16303016EFCF4F2F36100016AD6D44
:1000C0004FAF1620002C5ADA9E5E6C002016AF4F00
:1000D0006DAD1600006C5E9EDA5A2C0010362D4D68
:1000E000CDED16303016EDCD4D2D3610D5F08D14EA
:1000F000A1C881CFD9F1AF20000500000A000B0094
:100100000C000D00000102039D18400BFC04FD01D2
:10011000049F9F9F9F00A119A025A000A01EA031B1
:10012000A036A0FE007F494949497F22122A7F2A32
:1001300012226A6B147D577D10282A7A4F1A2A5092
:100140002415457D051524704E487F484E70525643
:10015000327F3256522D2C7D2C473C5549386A5FF0
:10016000407F6A161232537A12167F251B423E4B8D
:100170007A0A7D333E2A7F1F00000000002F000313
:1001800000033F123F163F1A120824323D2A020193
:1001900000003E41413E000A070A083E0840200098
:1001A0000808080020001008041C2A1C243E2032E5
:1001B0002A24222A1418143E2E2A121C2A12023A29
:1001C00006142A14242A1C002400402400081422A7
:1001D00014141422140802290612291E3E093E3F57
:1001E000251A1E21213F211E3F25213F05011E21E9
:1001F000393F083F213F2110201F3F043B3F202073
:100200003F063F3F013E1E211E3F09061E215E3F65
:100210000936222519013F013F203F3F100F3F18AB
:100220003F330C33033C03312D23007F41153E1532
:10023000417F0002010240404000010218243C3F7F
:10024000241818242418243F182C2C043F05485443
:100250003C3F0438003D00403D003F0834013F0072
:100260003C1C383C04381824187C241818247C3C86
:100270000804283C14043E243C203C3C100C3C3038
:100280003C2418244C503C24342C083641007F0078
:100290004136080101011028101F010120203E10E5
:1002A000200000080025150F241C0C103804180C21
:1002B0003828382828183C083C18283820242C3C9A
:1002C0002C2C1C040808211D07083C0306231E22B1
:1002D0003E22120A3F320F3E0A3F0A24130E271E07
:1002E0000222223E27120F2525102119273F222EF8
:1002F00021160F241B0E251F0526261E251D053F32
:100300000408241F04202222251927123B1620103E
:100310000F3C013E1F242421110F0C031C1A3F1A0D
:10032000091927222A2A382730320C13053F2502C3
:100330003F0E213F2025253F25251D07201F3C3F3F
:10034000203F20103E223E23110F212118010001E1
:100350000205020000000000000000204000000034
:10036000000000205020000000000050300000007D
:10037000000000606000000000000000001818008D
:100380000000000000363600000000000056360075
:1003900000000000020151090906000000005F0092
:1003A000000000000000007F41410041417F00004B
:1003B0000000000000003F010101004040407E00BD
:1003C00000000000003F213D05070070505E427EA6
:1003D000000000000000007F63410041637F0000D7
:1003E0000000000808087F08080800080808080836
:1003F0000808004444445F44444400412214081463
:100400002241000808082A080808001414141414CB
:100410001414001434141C141614000808141414B2
:1004200022220022221414140808000205023C4271
:10043000422400002B2C782C2B000000242A7A2F39
:100440002A1200001C62322E23140020545E254123
:10045000422000422512082452210020623E633EC1
:1004600023020020564955225840000022147F14D0
:100470002200001C2259554D120C0000004A55550F
:1004800029000004643C173C64040004643C1F3CE5
:100490006404001C22414141221C001C3E7F7F7FDE
:1004A0003E1C001C225D555D221C000814224122C6
:1004B000140800081C3E7F3E1C08007F414141415A
:1004C000417F007F7F7F7F7F7F7F0040704C434C68
:1004D00070400040707C7F7C7040000107196119FA
:1004E00007010001071F7F1F07010049221449145B
:1004F0002249000505057D05050500080808082AAC
:100500001C0800081C2A08080808000004027F02D2
:100510000400000010207F20100000003E414141F7
:10052000413E000000427F400000000062515149FE
:10053000494600002241494949360000302824221A
:100540007F2000002F454545453900003E49494977
:10055000493200000101611905030000364949498B
:100560004936000026494949493E000020547E345E
:1005700014600020527F2A1A4A3000003C402004B8
:100580001800001E2040200204180000104A4A2AC9
:10059000100000000845454525180000482A3A4A41
:1005A000400000004425153D45400000247E1450C5
:1005B00024000022527F0A484A340044344F443811
:1005C00004180044344F4439041900002A5A4B4E91
:1005D0005A0800002A5A4B4E5B08000008141422E7
:1005E00041000000081414224504003F0004443F69
:1005F0000404003F0004443F04050000205242422E
:1006000042400000205242434241000024544447EB
:100610005C040000245444475C050000003F404057
:1006200040200000003F404140210002020A563FA6
:1006300002020002020A563F02030004043F44542F
:100640005F440004043F44545F45000008093D4BEB
:100650004908000008093D4B490A00423A07225464
:10066000444400423A0722554445000002124E4BD2
:100670004A32000002124E4B4A3300001010484824
:100680003000000404022222221C0004040222235F
:10069000221D000002021A254341000002021A2511
:1006A000434500002057484844440000205748492B
:1006B000444500120A2752503A24007F002052423B
:1006C000424000304E38540F64780024147F0422D6
:1006D000523C001824124E422418007F0024545427
:1006E0003F44007F002454543F45007F002454566B
:1006F0003D4600023A4740413E0400023A4740412D
:100700003E0500023A4740433D06004030404D322E
:100710001060004030404D321161004030404D3299
:1007200015620008040204081010000804020409FD
:10073000101100080402040A1512007F006A6A7E84
:100740002A4A007F006A6A7F2A4B007F006A6A7E1D
:100750002D4A00006A6A6A7F2A4A0030291D4B48E8
:100760003C1000122A7F4240422400304E38540F81
:10077000443800000A3E4B4A4A300000080E384612
:1007800014080004071C62030A0400001C483E24ED
:100790001800001E04523F12120C00002050503E60
:1007A000480000002050503F244400001C51494A9A
:1007B000483000000F4241211E00000010696D4BBF
:1007C00049300024147F04023E40000010494D4B84
:1007D0004930000028187E0844380024147F044261
:1007E000423C003049251F24543800402825573505
:1007F000284000100A2E5B724A480040300C3340FB
:100800004020000004443C140C00000001413D095C
:100810000503000020201078040000001010087C60
:100820000201000018484C2818000000064243222C
:10083000120E0000404878484000002022223E224C
:10084000222000002828587C0800002222124A7F1B
:100850000202000042221F02427E000042221F02CA
:10086000427F000012121F721210000012121F723B
:100870001310000008444322120E000008444322D3
:10088000120F00080742221E020200080742221F20
:100890000203000042424242427E00004242424382
:1008A000427F0002024F42221F020002024F4223F7
:1008B0001E030000454A4020100C0000454A40211C
:1008C000100D00404222221A264000404222221BE4
:1008D00026410004043F4444544C0004043F444572
:1008E000544D000001464020100F000001464020FA
:1008F000110F000008444B2A120E000008444B2A36
:10090000120F00080A4A3E09090800080A4A3E096F
:100910000809000018405820180000020C424C2022
:10092000100E00020C424C21100D000405453D053F
:100930000504000405453D0504050000007F080886
:1009400010000000007F08091001000444241F0467
:1009500004040020222222222220004041251519D1
:100960002700002022127B061220004040201008A1
:1009700007000040300E00020C700040300E0002F4
:100980000D710040300E00020D7200003F484848D3
:10099000444400003F484849444500003F48484A15
:1009A0004546000002424222120E0000024242234B
:1009B000120F000002424222150E00080402040831
:1009C0001020000804020409102100080402040A8F
:1009D0001522002414447F041424002414447F05A9
:1009E0001425002414447F0615220002021222520C
:1009F0000A0600002125294A42000040704C43505D
:100A000020400040442414083700000008093F49F2
:100A100049480000101C680818000004040F740204
:100A20000A06000040484878400000202222223E6A
:100A300020200000004454547C000000424A4A4AEE
:100A40004A7E000004454525150C00000F4040205B
:100A50001F000040201E007F20100000007F40206B
:100A6000100800007E424242427E00000C444424B2
:100A70001C00000006424222120E0010121E12122A
:100A80007F12002022223A2622200000014545251F
:100A9000150F000041424020100C00000642432286
:100AA000120F000048281C4878000000100C48383D
:100AB00008000008040408101008000800000800DE
:100AC00000080004080808080808000808080808C2
:100AD000080808F0558E716B484D6C0853655548F1
:100AE000F13343492649F0684F6C4D955A080B0085
:100AF00002020201000904000001020200000524B4
:100B00000010010524010101042402060524060049
:100B1000010705810310004009040100020A0000DA
:100B200000070502024000000705830240000004A0
:100B300003090412010002EF020140412336800044
:100B4000010102030141726475696E6F204C4C43D0
:100B50000041726475696E6F204C656F6E617264DE
:100B60006F00010204081020408000000000003ED9
:100B70005B4F5B3E3E6B4F6B3E1C3E7C3E1C183C0D
:100B80007E3C181C577D571C1C5E7F5E1C00183C69
:100B90001800FFE7C3E7FF0018241800FFE7DBE7B2
:100BA000FF30483A060E2629792926407F05050799
:100BB000407F05253F5A3CE73C5A7F3E1C1C0808F5
:100BC0001C1C3E7F14227F22145F5F005F5F0609BA
:100BD0007F017F006689956A606060606094A2FF13
:100BE000A29408047E040810207E201008082A1C05
:100BF00008081C2A08081E101010100C1E0C1E0CD1
:100C000030383E3830060E3E0E0600000000000070
:100C1000005F00000007000700147F147F14242ADF
:100C20007F2A1223130864623649562050000807B1
:100C30000300001C2241000041221C002A1C7F1CD2
:100C40002A08083E080800807030000808080808D4
:100C5000000060600020100804023E5149453E003B
:100C6000427F400072494949462141494D33181499
:100C7000127F1027454545393C4A494931412111E8
:100C800009073649494936464949291E00001400DA
:100C900000004034000000081422411414141414FD
:100CA000004122140802015909063E415D594E7C5B
:100CB0001211127C7F494949363E414141227F4110
:100CC00041413E7F494949417F090909013E41416E
:100CD00051737F0808087F00417F41002040413F59
:100CE000017F081422417F404040407F021C027F68
:100CF0007F0408107F3E4141413E7F090909063EBD
:100D00004151215E7F09192946264949493203018B
:100D10007F01033F4040403F1F2040201F3F40389D
:100D2000403F631408146303047804036159494D78
:100D300043007F4141410204081020004141417FAE
:100D40000402010204404040404000030708002024
:100D5000545478407F284444383844444428384424
:100D600044287F385454541800087E090218A4A45B
:100D70009C787F0804047800447D40002040403D7A
:100D8000007F1028440000417F40007C04780478F4
:100D90007C080404783844444438FC182424181887
:100DA000242418FC7C0804040848545454240404E3
:100DB0003F44243C4040207C1C2040201C3C4030D0
:100DC000403C44281028444C9090907C4464544CFF
:100DD000440008364100000077000000413608005A
:100DE00002010204023C2623263C1EA1A161123A04
:100DF0004040207A38545455592155557941215451
:100E0000547841215554784020545579400C1E5255
:100E100072123955555559395454545939555454F9
:100E2000580000457C410002457D420001457C4060
:100E3000F0292429F0F0282528F07C54554500207D
:100E400054547C547C0A097F49324949493232481A
:100E5000484832324A4848303A4141217A3A424081
:100E60002078009DA0A07D39444444393D40404055
:100E70003D3C24FF2424487E4943662B2FFC2F2B26
:100E8000FF0929F620C0887E0903205454794100C7
:100E900000447D413048484A32384040227A007A46
:100EA0000A0A727D0D19317D2629292F2826292924
:100EB000292630484D402038080808080808080846
:100EC000382F10C8ACBA2F102834FA00007B00006D
:100ED00008142A142222142A14089500220095AA24
:100EE000005500AAAA55AA55AA000000FF0010103C
:100EF00010FF00141414FF001010FF00FF1010F07A
:100F000010F0141414FC001414F700FF0000FF008C
:100F1000FF1414F404FC141417101F10101F101FDA
:100F20001414141F00101010F0000000001F101007
:100F300010101F10101010F010000000FF10101003
:100F4000101010101010FF10000000FF140000FF20
:100F500000FF00001F10170000FC04F41414171009
:100F6000171414F404F40000FF00F71414141414FC
:100F70001414F700F7141414171410101F101F1472
:100F80001414F4141010F010F000001F101F0000D3
:100F9000001F14000000FC140000F010F01010FFFF
:100FA00010FF141414FF141010101F00000000F0A4
:100FB00010FFFFFFFFFFF0F0F0F0F0FFFFFF000079
:100FC000000000FFFF0F0F0F0F0F38444438447C20
:100FD0002A2A3E147E02020606027E027E02635523
:100FE0004941633844443C04407E201E2006027E72
:100FF000020299A5E7A5991C2A492A1C4C72017284
:101000004C304A4D4D303048784830BC625A463DED
:101010003E494949007E0101017E2A2A2A2A2A44A2
:10102000445F444440514A444040444A51400000D7
:10103000FF0103E080FF000008086B6B08361236E2
:101040002436060F090F06000018180000001010C3
:10105000003040FF0101001F01011E00191D171281
:10106000003C3C3C3C000000000000000601150173
:10107000260137014A015D01720188019F01B80113
:10108000D201EE010B022A024B026E029302BA0257
:10109000E40210033F037003A403DC0317045504A8
:1010A0009704DD0427057505C80520067D06E006C2
:1010B0004907B8072D08A9082D09B9094D0AEA0AF8
:1010C000900B400CFA0CC00D910E6F0F5A1053117B
:1010D0005B1272139A14D41520178018F519801B0F
:1010E000231DDE1EB420A622B524941811241FBE91
:1010F000CFEFDAE0DEBFCDBF11E0A0E0B1E0E4E089
:10110000F2E302C005900D92AE34B107D9F726E0A4
:10111000AEE4B1E001C01D92AF3CB207E1F718E0C8
:10112000C6E7D8E004C02197FE010E94F518C53734
:10113000D107C9F70E94B9150C9400190C9400004E
:10114000409150025091510220914E0230914F0235
:1011500042175307B4F49091E8009570E1F3909131
:10116000E80092FD19C08093F100809150029091A7
:10117000510201968F739927892B19F48EEF809372
:10118000E800809150029091510201969093510293
:101190008093500281E0089580E00895CF92DF921D
:1011A000EF92FF920F931F93CF93DF931F92CDB7D0
:1011B000DEB7182F062FE42E862F880F8E5F9983B7
:1011C0000E94A00883E00E94A008F12EC12E998100
:1011D000D92E8C2D8F19801798F4F601E7FE02C0E6
:1011E000849101C080810E94A008182F80E00E9495
:1011F000A0088123FFEFCF1ADF0A8111EACF01C0D7
:1012000081E00F90DF91CF911F910F91FF90EF90B0
:10121000DF90CF900895DF92EF92FF920F931F938C
:10122000CF93DF93D82E8A017B01E40EF51EEB01EC
:10123000CE15DF0571F0D7FE03C0FE01849101C019
:1012400088810E94A00821968111F2CF8FEF9FEF35
:1012500001C0C801DF91CF911F910F91FF90EF90D6
:10126000DF900895615030F02091F100FC0120835F
:101270000196F8CF289884E6809359020895CF927A
:10128000DF92EF92FF920F931F93CF93DF936C0146
:101290007A018B01C0E0D0E0CE15DF0589F0D801DE
:1012A0006D918D01D601ED91FC910190F081E02DC1
:1012B000C6010995892B11F47E0102C02196ECCF5D
:1012C000C701DF91CF911F910F91FF90EF90DF90B9
:1012D000CF9008953FB7F89480914E0190914F01BF
:1012E000A0915001B091510126B5A89B05C02F3F98
:1012F00019F00196A11DB11D3FBFBA2FA92F982F3C
:101300008827820F911DA11DB11DBC01CD0142E0B6
:10131000660F771F881F991F4A95D1F708950F937D
:101320001F93CF93DF931F92CDB7DEB782E08983FF
:1013300042E450E06DEE7AE080E80E940B090E94E2
:101340003315DC0112960D911C91139701151105AF
:1013500069F0D801ED91FC910280F381E02DBE018E
:101360006F5F7F4FC801099597FF07C089810F9074
:10137000DF91CF911F910F910895F801008511859C
:10138000E5CF0E94FB181F920F920FB60F92112407
:10139000CF92DF92EF92FF920F931F932F933F9381
:1013A0004F935F936F937F938F939F93AF93BF936D
:1013B000EF93FF93CF93DF93CDB7DEB76C97DEBF8C
:1013C000CDBF1092E9008091E80083FFEDC168E095
:1013D000CE0145960E94320982EF8093E8008D8904
:1013E00087FF05C09091E80090FFFCCF03C09EEFFF
:1013F0009093E800982F907609F0C6C09E892F89B7
:10140000188D91110CC0803829F48091530280937B
:10141000F10002C01092F1001092F10048C1422F79
:1014200050E0512B913051F4811141C141305105AF
:1014300009F03DC1809153028D7F0BC0933061F460
:10144000811135C14130510509F031C180915302FC
:101450008260809353022BC1953041F48091E80063
:1014600080FFFCCF20682093E30021C1963009F073
:101470005FC0EB8CFC8C1092E9001092510210922C
:101480005002123091F510924F0210924E020E94BB
:101490008F0999E0BE016F5F7F4FDB01E92F1D923D
:1014A000EA95E9F799831A8391E09E8390EA9887F9
:1014B0009AEF99872091500230915102275F3F4F58
:1014C0003C832B838D831092E9001092510210927D
:1014D0005002F0924F02E0924E0249E050E080E06C
:1014E0000E940B090E948F09E2C0F0924F02E09225
:1014F0004E020E943315DC011296ED90FC9013977A
:10150000E114F10409F4C0C0D701ED91FC9104800D
:10151000F581E02DBE016B5E7F4FC70109950097F5
:1015200019F00CF0C4C0C7C0F701E084F184E8CF23
:10153000973009F4C0C0983021F481E08093F10025
:10154000B6C0993009F0B3C0837009F0B4C0E1E2CD
:10155000F1E081E021E036E39081992361F080930E
:10156000E9002093EB0091919093EC003093ED0013
:101570008F5F873089F78EE78093EA001092EA0048
:101580008F8980935A0293C08B8D9C8D1092E900B5
:10159000109251021092500290934F0280934E028B
:1015A000898D811156C08E899D89913A59F4813275
:1015B00009F081C047E050E068E071E080E00E94FF
:1015C0000B0975C0913209F076C0833289F4888D99
:1015D00090E0982F88272F89822BA0E0B0E080939D
:1015E000030190930401A0930501B09306015FC02D
:1015F000803269F48091E80082FFFCCF67E088E0E8
:1016000091E00E9432098BEF8093E80006C082329D
:1016100009F04DC08F8980930F0180915202882379
:1016200019F0EEEFFAE002C0E0E0F8E08091080186
:1016300090910901A0910A01B0910B01803B944067
:10164000A105B10509F07BC080910F0180FF93C017
:1016500076C00E943315DC0112960D911C911397F0
:101660000115110541F1D801ED91FC910190F08136
:10167000E02DBE016B5E7F4FC8010995811117C037
:10168000F80100851185ECCF113009F44EC01330FC
:1016900091F48F89882309F445C0823081F440E8B1
:1016A00060E181E59BE00E94CE08882321F08EEF67
:1016B0008093E80079C081E28093EB0075C08130AF
:1016C00029F440E86BE085E49BE0EDCF833099F7A7
:1016D0000E943315DC011296ED90FC9013978E0159
:1016E0000F5F1F4F6801E114F10479F0D701ED910C
:1016F000FC910680F781E02DB801C7010995080F1C
:10170000111DF701E084F184EECFD8011C92F6019F
:1017100001900020E9F73197BF016C197D0940E085
:10172000C601C1CF6FE27BE002C063E37BE06115DD
:10173000710509F2FB01449150E080E840CF0FB6FB
:10174000F894A89580916000886180936000109261
:1017500060000FBEA895EE3F2AE0F20739F08091B5
:10176000FE0A9091FF0A91838083A1CF1092FF0A15
:101770001092FE0A9CCFEE3F8AE0F80731F080819C
:1017800091819093FF0A8093FE0A87E797E7918300
:1017900080839BE088E10FB6F894A8958093600061
:1017A0000FBE9093600083CF6C960FB6F894DEBFA7
:1017B0000FBECDBFDF91CF91FF91EF91BF91AF9160
:1017C0009F918F917F916F915F914F913F912F9159
:1017D0001F910F91FF90EF90DF90CF900F900FBE71
:1017E0000F901F9018958F929F92AF92BF92CF92B9
:1017F000DF92EF92FF926B017C010E946A094B011C
:101800005C01C114D104E104F104F1F00E946A0901
:10181000DC01CB0188199909AA09BB09883E9340CC
:10182000A105B10570F321E0C21AD108E108F10861
:1018300088EE880E83E0981EA11CB11CC114D1044F
:10184000E104F10419F7DDCFFF90EF90DF90CF9026
:10185000BF90AF909F908F9008952F923F924F929C
:101860005F926F927F928F929F92AF92BF92CF9230
:10187000DF92EF92FF920F931F93CF93DF93CDB739
:10188000DEB727970FB6F894DEBF0FBECDBF9B83A0
:101890008A836A30A1F4DC0155962C9155975196B4
:1018A0008D919C915297B8E02B9F800D911D112432
:1018B000EA81FB81928B818B108A1786C1C06D30C3
:1018C00009F4BEC0AA81BB8155964C915597549698
:1018D0006C9054976E8253967C9053977F8251966A
:1018E000CD90DC9052971F968D919C9150978038A7
:1018F0009105C4F0AA81BB8155962C915597422F32
:1019000050E01F968D919C915097B6E02B9F800DD3
:10191000911D1124EA81FB81908B878726892111F3
:101920007AC08EC0F0E4CF16D10424F79C0155E0B4
:10193000459F200D311D112412161306DCF6242EAE
:10194000312C9601A8E04A9F200D311D112412165A
:10195000130684F6B5E06B9FB0011124FB01E65934
:10196000F44F2F0150E0F201B490553009F4B12C3E
:101970007601B8E09B2EB0FC02C08E8001C08F8043
:1019800081100BC06E807F80671007C0B6949A9458
:10199000E20CF31C9110EFCF33C09C012983622F1E
:1019A000681B641798F7B701E62FEE19E41728F5BE
:1019B00020383105F8F460347105E0F48B01E2E67B
:1019C000FBE0A0E16A2E7980609ED001A07811240E
:1019D000A70D0770E00FF11DA490BD83AC83A55A3D
:1019E000BD4F882019F0EC91AE2A03C0A094EC9171
:1019F000AE22AC926F5F7F4FD7CF2F5F3F4FCECFDE
:101A00005F5F820D931D92012F5F3F4F290156307A
:101A100009F0A9CF6FCF6AEF64039001659F300D85
:101A2000112420583F4F2817390754F48A819B818D
:101A3000DC01ED91FC910190F081E02D6AE00995C7
:101A400081E090E027960FB6F894DEBF0FBECDBFC1
:101A5000DF91CF911F910F91FF90EF90DF90CF908A
:101A6000BF90AF909F908F907F906F905F904F90BE
:101A70003F902F9008950895089580E090E0089594
:101A80001F920F920FB60F9211242F933F938F93B3
:101A90009F93AF93BF938091460290914702A0918C
:101AA0004802B09149023091570223E0230F2D37AD
:101AB00020F40196A11DB11D05C026E8230F029652
:101AC000A11DB11D209357028093460290934702B7
:101AD000A0934802B093490280914E0190914F012A
:101AE000A0915001B09151010196A11DB11D8093AB
:101AF0004E0190934F01A0935001B0935101BF91BB
:101B0000AF919F918F913F912F910F900FBE0F90AA
:101B10001F9018952091550190915601E22FF92FB1
:101B2000E80FF11DE80FF11D85919491209153016B
:101B300030915401820F931F08952F923F924F923C
:101B40005F926F927F928F929F92AF92BF92CF924D
:101B5000DF92EF92FF920F931F93CF93DF93CDB756
:101B6000DEB764970FB6F894DEBF0FBECDBF2EE68A
:101B700031E03C8B2B8B05E911E027E531E038871C
:101B80002F8333E9E32E31E0F32E4BE9C42E41E0FD
:101B9000D42E5DE9452E51E0552E67E9262E61E0F1
:101BA000362E26E931E03A87298729E931E03C835E
:101BB0002B837EE9A72E71E0B72E21E931E03E8329
:101BC0002D83E2E96E2EE1E07E2E20E731E03A83BC
:101BD0002983812C912C1B86AB89BC899E96EC9124
:101BE000EE23F1F0D2018C91482F50E02E2F23707C
:101BF00030E0421753078CF0F0E0F595E795F59546
:101C0000E795EE0FFF1FE659FF4E85919491EF8106
:101C1000F885928381831C9203C08F5FF2018083D9
:101C2000AB89BC89D4969C91D497992309F43DC083
:101C3000D5968C91482F50E0292F2F77022E000C3B
:101C4000330B421753076CF197FF06C0E981FA8105
:101C500080818150808305C0A981BA818C918F5F7A
:101C60008C93E981FA818081811103C081E08083B6
:101C700006C0803420F08FE3A981BA818C93A981BA
:101C8000BA81EC91F0E0EE0FFF1FE659FF4E85910F
:101C90009491F70191838083AB89BC89D5961C927E
:101CA00004C08F5FEB89FC8985ABA985BA855C91FF
:101CB0005523D9F1EB89FC8922A5211128C0D10136
:101CC0003C91432F407436FF04C0F701808191811D
:101CD00003C0D8018C9190E0850F911D57FD9A9516
:101CE00037FD0DC097FD09C0442379F0863BB4E26F
:101CF0009B073CF085EB94E204C080E090E0442335
:101D000021F0F7019183808302C0D8018C9381E098
:101D1000820FEB89FC8982A730E0D1018C918F730F
:101D200090E0281739070CF012A6EB81FC81608146
:101D3000662309F44AC0A981BA819C91992309F4C8
:101D400044C0F6018081AB89BC899C967C91482F68
:101D50004F7150E0272F2F7130E0421753071CF4CA
:101D60008F5F808332C0807E21F480E2F601808321
:101D70000BC0803239F476FD05C06F3F19F080E466
:101D8000808302C0F6011082D6018C91807E69F0BA
:101D90006F3F29F0262F22952F70920F01C090E0FF
:101DA000803419F4862F8F70980FD501EC910E2E88
:101DB000000CFF0BE90FF11DEE0FFF1FE659FF4E60
:101DC00085919491F70191838083AB89BC89D196E9
:101DD0004C91D197442309F447C0D2963C91632F8C
:101DE000607436FF04C0F7018081918103C0D8017F
:101DF0008C9190E0EB89FC8923A950E027FF03C078
:101E0000840F951F02C0841B950B97FD09C06623A4
:101E100079F0863BF4E29F073CF085EB94E204C046
:101E200080E090E0662321F0D7018D939C9302C05F
:101E3000F8018083422F4F7150E03F71832F90E073
:101E40004817590734F42F5FAB89BC89D3962C937C
:101E50000BC027FF04C0EB89FC8913AA05C080E8EA
:101E6000AB89BC89D3968C93EB89FC8981A192A123
:101E7000009709F097C2C4010496B1E001C0BB0FFE
:101E80008A95EAF7B88B4BE1489D9001499D300D4A
:101E900011243D872C87A6E3A89DC001A99D900D24
:101EA00011249C0122593E4F3F872E87AB89BC8964
:101EB0008D919C911197BC016F5F7F4F6D937C93C7
:101EC000FC014491403428F5A981BA814C93442304
:101ED00021F0F5018081480F4C93A981BA81EC91E2
:101EE000F0E0EE0FFF1FE659FF4E85919491F70148
:101EF00091838083D1018C91811104C0F201808192
:101F0000D8018C93EB89FC8984A585FF44C2D60156
:101F100036C1403A08F06DC1242F30E02054310919
:101F20002C30310509F4E0C00CF050C025303105EB
:101F300009F4ACC0BCF42230310509F4A7C04CF45C
:101F40002115310509F485C02130310509F48DC012
:101F500022C22330310509F4ABC02430310509F425
:101F600084C019C22830310509F4A5C0E4F4263034
:101F7000310509F49DC02730310509F00CC2FB0181
:101F80006491AB81BC816C939C012D5F3F4FEB89C9
:101F9000FC8931832083FC013296E491AB89BC89B2
:101FA0009C96EC93F8C12A30310509F488C002965A
:101FB0002B3031050CF088C0AB89BC8911969C93FD
:101FC0008E93FB0164919E966C93E5C1233131059C
:101FD00009F4C2C0ACF42F30310509F4ACC04CF4A4
:101FE0002D30310509F48AC02E30310509F488C03E
:101FF000D2C12131310509F49EC00CF0A1C080C0CE
:102000002C35310509F4BDC05CF42431310509F4E7
:10201000A7C02531310509F0BEC1AB81BC81AFC07D
:102020002E35310509F4D0C00CF4BBC02F35310575
:1020300009F0B1C1809100012889822780930001B5
:10204000D8011C922FEF3FEFEB89FC8932A321A32B
:10205000A2C10296EB89FC8991838083FB01649184
:10206000D8016C93F201608396C10296AB89BC895A
:102070008D939C93FB016491A985BA856C9341343F
:1020800011F080E401C080E0F1016CC1FB016491BA
:10209000A985BA856C939C012D5F3F4FEB89FC8924
:1020A00031832083FC013296E491D101EC9373C11A
:1020B000E985FA8502C0EB81FC8110826CC1AB8995
:1020C000BC899E961C9267C1EB89FC8991838083B1
:1020D000FB016491D5018C91062E000C770B680FE3
:1020E000711D87FD7A9508C00296EB89FC89918362
:1020F0008083FB016491D5016C934DC1F501DDCF67
:10210000FB0125913491AB89BC89D1962C93D19751
:102110009C012D5F3F4F2D933C93FC01329685919E
:1021200094914E3411F020E401C020E0820FEB893D
:10213000FC8982AB30C1AB89BC89D1961C922BC182
:102140000296EB89FC8991838083FB016491AB89C2
:10215000BC89D4966C931FC1EB89FC8914AA1BC15E
:10216000EFEFAB81BC81EC930296AB89BC891196F1
:102170009C938E93FB0164919C966C930CC11C9272
:102180000AC10296EB89FC8991838083FB016491EB
:1021900080916D0170E0680F711D60936D0177276C
:1021A0000AC00296AB89BC898D939C93FB01649114
:1021B00060936D0170E089E09DE30E94CD187093FB
:1021C0006C0160936B01E7C020E030E0FB014491BB
:1021D000F901E259FE4F40A32A5C3F4F6F5F7F4FEA
:1021E000283D310599F70596AB89BC898D939C9361
:1021F000D2C0403E50F450E04F595109AB89BC89E0
:1022000092965C934E939197C6C0403EC1F4AB89C1
:10221000BC8980E090E09695982F882797958795C0
:10222000ED91FD91E4912E2F2F77822BE7FDF3CFD7
:102230008F5B9F4FEB89FC8992A381A3ACC04C3F7D
:1022400008F4A9C024E0240F223008F049C04C3F14
:1022500041F00296AB89BC898D939C93FB016491FC
:1022600001C060E0AB89BC89ED91FC9111979F01A1
:102270002F5F3F4F2D933C93E491D3015C91E51781
:1022800059F1AB89BC895F964C91842F90E0AD8168
:10229000BE817C91AE85BF85A80FB91F51967C93F6
:1022A000519758965C93AC85BD85A80FB91FAA0FAE
:1022B000BB1FA259BE4F8091530190915401281B1E
:1022C000390B14963C932E9313974F5FAB89BC89BF
:1022D0005F964C93D301EC93ED81FE81608313C034
:1022E0004E3F09F041C0AD81BE818C91811107C084
:1022F000AB89BC895F96EC91EE2329F00DC081502B
:10230000ED81FE818083D3018C910E948A0DEB893F
:10231000FC89918380833FC0E150AB89BC895F9683
:10232000EC93F0E0AC85BD85AE0FBF1FAA0FBB1FBD
:10233000A259BE4F809153019091540113962D9153
:102340003C911497820F931FAB89BC898D939C930A
:102350002E853F85E20FF31F8189AD81BE818C936D
:10236000808DF301808317C0AB89BC8980E090E049
:102370009695982F882797958795ED91FD91E491F3
:102380002E2F2F77822BE7FDF3CF680F791FAB89B4
:10239000BC896D937C93EB89FC8981A192A1009704
:1023A00009F484CD8F3FFFEF9F0739F00197AB8988
:1023B000BC8992969C938E93919720910001822FD5
:1023C00090E0082C02C0959587950A94E2F780FD6D
:1023D00015C03B85333041F4D8018C9190E0959540
:1023E0008795EF81F88509C0D7018D919C91EF8188
:1023F000F88592838183D8018C918083207F89F531
:102400009091FA018091C401890F90913002890F57
:1024100090918E01890FE9F02EE831E0F901808179
:10242000298B3A8B0E948A0D29893A89F901B09744
:1024300091838083D90112961C921E9211972A5C77
:102440003F4FB2E026363B0749F780EF809300010B
:1024500008C088EDEEE6F1E011928A95E9F7109256
:1024600072002B852F5F2B873FEF831A930A2B89EE
:102470003C892A5C3F4F3C8B2B8B0A5C1F4F2F8182
:1024800038852B5F3F4F38872F8336E3E30EF11CEF
:1024900046E3C40ED11C86E3480E511C96E3290E78
:1024A000311C29853A852A5C3F4F3A8729872B8141
:1024B0003C812A5C3F4F3C832B8336E3A30EB11C47
:1024C0002D813E812A5C3F4F3E832D8336E3630E90
:1024D000711C29813A812A5C3F4F3A8329833B85CD
:1024E000343009F079CB64960FB6F894DEBF0FBE96
:1024F000CDBFDF91CF911F910F91FF90EF90DF90B3
:10250000CF90BF90AF909F908F907F906F905F9093
:102510004F903F902F9008952F922FB62F93209198
:10252000540220952093540221F02F912FBE2F901A
:102530001895BF93AF930F921F9220916201009064
:102540006401020E00926401209163011090650104
:10255000121E10926501B12DB7FDB095BB0FA09171
:102560006101B058BA02110CA12D209158010090C0
:102570005A01020E00925A012091590110905B01FC
:10258000121E10925B01212D220F2121B0915701C3
:1025900027FDB195AB0F20915D0100905F01020E08
:1025A00000925F0120915E0110906001121E109256
:1025B0006001B0915C0117FCB195AB0FB1E00090E8
:1025C000670110906801000C111C17FC0B2616FC0B
:1025D0000B260092670110926801B091660117FC0A
:1025E000B195AB0FB0910701AB0FA093CF00B091A5
:1025F0005602A0915502119761F0B0935602A09334
:1026000055021F900F90AF91BF912F912FBE2F9029
:102610001895B0916C01A0916B01B0935602A093F4
:10262000550278943F934F935F936F937F938F936B
:102630009F93EF93FF9311240E949D0DFF91EF91C3
:102640009F918F917F916F915F914F913F911F90DB
:102650000F90AF91BF912F912FBE2F901895BC0175
:1026600080E090E00C94F30B8FB18095807F669BA7
:1026700088601C9B846008953E9A3F9A81E0809315
:1026800052010895FC0180915A02811103C08FEF1D
:102690009FEF08959FB7F89482E08093E90020911E
:1026A000F20030E01216130614F421E030E0211598
:1026B000310559F0289884E6809359028091F10001
:1026C00080838091F200882319F09FBFC90108958B
:1026D0008BE68093E800F9CF2FB7F89483E08093DE
:1026E000E9009091E800892F807295FF04C09091D5
:1026F000F20080E4891B2FBF0895CF93DF931F92D0
:10270000CDB7DEB76983DC01ED91FC910280F381E6
:10271000E02D41E050E0BE016F5F7F4F09950F90C3
:10272000DF91CF91089583E08093E9008091F200DA
:10273000882319F08AE38093E80008950E946C13BF
:1027400090E00895CF93DF931F92CDB7DEB7FC01E1
:102750008485958597FD05C02FEF3FEF358724874A
:102760000BC0CE0101960E944213019719F4898192
:1027700090E002C08FEF9FEF0F90DF91CF9108950F
:102780000F931F93CF93DF931F92CDB7DEB78C01CA
:10279000FC018485958597FF0EC0CE0101960E94AD
:1027A0004213019719F4298130E002C02FEF3FEF67
:1027B000F80135872487F801848595850F90DF918E
:1027C000CF911F910F910895FC018485958597FD08
:1027D0000BC09FB7F89482E08093E9008091F200EB
:1027E0009FBF90E0019608959FB7F89482E0809390
:1027F000E9008091F2009FBF90E008958F929F9230
:10280000AF92BF92CF92DF92EF92FF920F931F93FE
:10281000CF93DF935C016B017A0180910F018823D4
:1028200009F45BC080915A02882309F456C0809154
:10283000580280FF05C08091E00082608093E00034
:10284000E70110E00AEF83E0882E9AE3992E2097A3
:10285000D9F10E946C1381110AC0015009F43DC0E6
:1028600061E070E080E090E00E94F30BF0CF282F51
:1028700030E0C217D3070CF48C2F4FB7F894809236
:10288000E9009091E80095FF1DC0282F30E0C21BA1
:10289000D30BF601982F915020F081918093F10095
:1028A000FACFC20ED31E112319F09092E80009C08E
:1028B0008091E80085FD06C09092E80011E0209725
:1028C00009F010E04FBFC3CF1111C3CF5D9884E66C
:1028D000809372061E141F0444F081E090E0F5011D
:1028E0009383828380E090E001C0C701DF91CF91A4
:1028F0001F910F91FF90EF90DF90CF90BF90AF901E
:102900009F908F900895EBE5F2E080E0A0E0B8E0C2
:1029100000800EBC8111012C1197A0FDFDCF01920A
:10292000B9F70DB408956F927F928F929F92BF92E4
:10293000CF92DF92EF92FF920F931F93CF93DF938B
:10294000822E912CFC01E80DF91DF7FD7EC0803828
:1029500091050CF07AC0FB013896E834F10508F0D7
:1029600074C08B0177FF04C000271127061B170BCB
:1029700007701127DB0177FD1796D3E0B595A79572
:10298000DA95E1F777FF0CC0119768E070E09B01E2
:10299000201B310B8901AE3F3FEFB30709F455C04F
:1029A000ED012196D695DC2FCC27D795C795C80F7A
:1029B000D91FFE01E55AFD4F3F01BD017695762FE7
:1029C000662777956795680F791F655A7D4FFA01DD
:1029D000C8E0CC2ED12CC01AD10A7F01E41AF50A26
:1029E000E814F90494F58038910579F197FF08C04F
:1029F00031962FEF621A720A01966F5F7F4FEDCF0B
:102A0000AF3F3FEFB307E9F0E490002E01C0EE0CBA
:102A10000A94EAF7EB01B880EB28E882011511056A
:102A200039F3A730B10521F3E490F12C0C2C02C04E
:102A3000F594E7940A94E2F7E301B880EB28E88282
:102A4000D7CF0115110581F7D3CFDF91CF911F911A
:102A50000F91FF90EF90DF90CF90BF909F908F905D
:102A60007F906F9008958091770681110DC082E06C
:102A70008093730684E08093740610927606109219
:102A8000750681E08093770683E796E008951F92AC
:102A90000F920FB60F9211248F939F938091E100B4
:102AA0009091E100937F9093E10083FF0FC010921B
:102AB000E90091E09093EB001092EC0092E3909388
:102AC000ED0010925A0298E09093F00082FF20C02F
:102AD00093E09093E9009091F200992319F09AE322
:102AE0009093E80090917206992339F090917206C4
:102AF000915090937206992389F1909159029923EC
:102B000039F090915902915090935902992341F1D3
:102B100084FF10C08091E2008E7E81608093E2008D
:102B20008091E1008F7E8093E100809158028E7E3B
:102B3000806111C080FF16C08091E2008E7E8061AE
:102B40008093E2008091E1008E7E8093E10080918D
:102B500058028E7E81608093580204C05D9ACDCF6A
:102B6000289AD6CF9F918F910F900FBE0F901F90F4
:102B70001895CF93DF931F92CDB7DEB7789484B5C5
:102B8000826084BD84B5816084BD85B5826085BD69
:102B900085B5816085BD80916E00816080936E00F7
:102BA00010928100809181008260809381008091E9
:102BB000810081608093810080918000816080939A
:102BC00080008091910082608093910080919100BB
:102BD000816080939100809190008160809390004B
:102BE0008091C10084608093C1008091C1008260A7
:102BF0008093C1008091C10081608093C100809169
:102C0000C30081608093C3008091C0008260809384
:102C1000C0008091C20081608093C20080917A00E0
:102C2000846080937A0080917A00826080937A0039
:102C300080917A00816080937A0080917A00806828
:102C400080937A0010925A02109253021092580206
:102C50008091D70081608093D70080EA8093D8006C
:102C600089B5806189BD89B5826089BD09B400FEDE
:102C7000FDCF61E070E080E090E00E94F30B809176
:102C8000D8008F7C80618093D8008091E000807FA5
:102C90008093E0008091E1008E7E8093E1008DE0E2
:102CA0008093E200559A209AEEEFFFE78591949188
:102CB0008B3F9C4D19F481E08093520281EC80930C
:102CC0007C0085B1806F85B984B1877E84B984B179
:102CD000876E84B95E9A5F988AB1806D8AB9769A58
:102CE0006E9881B3806F81BB899880B38D7080BBF3
:102CF00080E58CBD81E08DBD85E090E00E942F13C2
:102D00005F9A85E090E00E942F135E985C98ECEE4D
:102D1000F0E08DE08E0F94919EBD00000DB407FE93
:102D2000FDCF31968E13F7CF5C9A81E880936400D3
:102D3000809165008160809365000E94831482E029
:102D400090E00E94C518882319F00E943C1304C02B
:102D5000109252013E983F9882E390E00E942F1318
:102D60000E9434138111F8CF81E2809366060E949D
:102D70003C1388EDEEE6F1E0DF011D928A95E9F75C
:102D800080EF8093000189E180936D0181E792E0FB
:102D900090936C0180936B0181E090E090936801C7
:102DA00080936701909336028093350282E480938A
:102DB000C00081E08093C1008FEF8093D10080E854
:102DC0008093CF0084E080937200E9EFF0E0E4911B
:102DD000E0934A028AEF90E0909356018093550168
:102DE000F0E0EE0FFF1FCF0186509F4F6C0104965D
:102DF0009093540180935301BEE6EB2EB1E0FB2E7D
:102E000000E010E0F601E00FF11F84910E948A0DAE
:102E1000D7018D939C930F5F1F4FB6E3EB0EF11C10
:102E20000430110579F75BE5C52E52E0D52E83ED10
:102E30009AE06AE1562E580E70E0A72E70E0B72E89
:102E4000712C8FB7F89440914602509147026091DF
:102E50004802709149028FBF80916706E42FE81BFA
:102E60008E2F90916806992329F0E09369061092BD
:102E700068060FC190916606E91748F48F5F8917BD
:102E800008F007C181E083BF889513BE02C181E0CD
:102E9000809368064093670680916206909163066E
:102EA0000196909363068093620680914D028F5F36
:102EB00080934D02843038F080914C028F5F809374
:102EC0004C0210924D0280914C02823010F0109210
:102ED0004C020E94341387FF08C086E080934B02A7
:102EE000809102018150809302010E94341384FF7B
:102EF00007C010924B02809102018F5F8093020104
:102F00000E94341386FF08C082E080934B028091B8
:102F100001018F5F809301010E94341385FF08C077
:102F200084E080934B0280910101815080930101E4
:102F3000872DF60181118FEF002481938193819376
:102F400081930394D1F710926D0610926C06109243
:102F50006B0610926A0603ED1AE030E0312C412C2A
:102F600047E0642EF8014491413F29F0423F29F0A7
:102F7000403F29F471C031EF70C032EF6EC0313F75
:102F8000F1F0323F09F443C0403F08F065C0842DA2
:102F900090E0893791051CF0F8E03F0E412C28E0C5
:102FA000429FA00111244D5A5C4F632D70E028E030
:102FB000842D90E00E94931488E0480E4DC04E3955
:102FC00008F04BC0842D90E08D3791051CF098E0FF
:102FD000390E412CE32CF12C842C912C50E0CA01A9
:102FE000880F991F480F591F47585E4F23E0B701BC
:102FF000C40139830E94931421E048E751E0B701EE
:10300000C40103960E949314A4E04A0E23C04C30DE
:1030100020F5842D90E0893791051CF0B8E03B0E37
:10302000412CE32CF12C842C912C649EA0011124C2
:103030004C5D5E4F27E0B701C40139830E949314B1
:1030400021E048E751E0B701C40107960E949314BC
:10305000E8E04E0E398101C030EF0F5F1F4F501274
:1030600081CF80914C02E0914B02F0E0E80FF11D1E
:10307000EE0FFF1FE05FFE4F408151816091020122
:1030800070E08091010128E090E00E9493140E947A
:103090008314A114B10409F4D4CE0E940000D0CE50
:1030A0000F931F93CF93DF938C0181E090E00E94F8
:1030B000C51880FF31C08AE090E00E94C5189FEFDC
:1030C000980F9E3F48F522E330E0D80150963C939C
:1030D0002E931F9728E330E052963C932E935197FE
:1030E000CBE0D0E0D801ED91FC910190F081E02D92
:1030F000682FC8010995CE010E94C5182196C131DB
:10310000D10581F70E94831488EE93E0DF91CF917F
:103110001F910F910C942F13DF91CF911F910F915D
:10312000089504970C945018EFE7F6E0138212828A
:1031300088EE93E0A0E0B0E084839583A683B78314
:103140008BE291E0918380838FEF9FEF9587848757
:10315000EBE5F6E0138212821186128680E1838706
:103160001086178215868DE391E0918380838BE42E
:1031700091E095838483108A1786128A118A81E0F0
:10318000838B148A858B168A0895F999FECF92BD98
:1031900081BDF89A992780B5089597FB072E16F4FC
:1031A000009407D077FD09D00E94E11807FC05D0F4
:1031B0003EF4909581959F4F0895709561957F4F4E
:1031C0000895AA1BBB1B51E107C0AA1FBB1FA6176E
:1031D000B70710F0A61BB70B881F991F5A95A9F7C0
:1031E00080959095BC01CD010895EE0FFF1F0590CD
:1031F000F491E02D099481E090E0F8940C9400198A
:04320000F894FFCF70
:10320400F02020FFFFFFFF8000E10000000000002D
:10321400E400DC00D400CC00C400BC00B400AC006A
:1032240000C18081000000000000007D13FE139E99
:10323400139313E413A213C013000000002D0C3FDA
:0E324400093D0D3C0D5018FCFF0000911800D4
:00000001FF
