:100000000C948E080C94B6080C94B6080C94B608A0
:100010000C94B6080C94B6080C94B6080C94B60868
:100020000C94B6080C94B6080C94D9120C941C14B9
:100030000C94B6080C94B6080C94B6080C94B60848
:100040000C94B6080C94B6080C94B6080C94B60838
:100050000C94B6080C94B6080C94B6080C947D0A5F
:100060000C94B6080C94B6080C94B6080C94B60818
:100070000C94B6080C94B6080C94B6080C94B60808
:100080000C94B6080C94B6080C94B6080C94B608F8
:100090000C94B6080C94B6080C94B6080C94B608E8
:1000A0000C94B6080C94B60F0C94B60800001030EF
:1000B0003010000000001212301000000000242454
:1000C00060200000000010301212000000002060CC
:1000D00024240000000012323212000010362F4F8C
:1000E000CFEF16303016EFCF4F2F36100016AD6D14
:1000F0004FAF1620002C5ADA9E5E6C002016AF4FD0
:100100006DAD1600006C5E9EDA5A2C0010362D4D37
:10011000CDED16303016EDCD4D2D36100102040810
:100120001020408000000000003E5B4F5B3E3E6BB5
:100130004F6B3E1C3E7C3E1C183C7E3C181C577D81
:10014000571C1C5E7F5E1C00183C1800FFE7C3E7CD
:10015000FF0018241800FFE7DBE7FF30483A060EDF
:100160002629792926407F050507407F05253F5A26
:100170003CE73C5A7F3E1C1C08081C1C3E7F142296
:100180007F22145F5F005F5F06097F017F00668941
:10019000956A606060606094A2FFA29408047E0487
:1001A0000810207E201008082A1C08081C2A0808AD
:1001B0001E101010100C1E0C1E0C30383E3830066D
:1001C0000E3E0E06000000000000005F0000000769
:1001D000000700147F147F14242A7F2A1223130897
:1001E000646236495620500008070300001C224173
:1001F000000041221C002A1C7F1C2A08083E080817
:1002000000807030000808080808000060600020C6
:10021000100804023E5149453E00427F40007249A9
:100220004949462141494D331814127F102745454D
:1002300045393C4A49493141211109073649494963
:1002400036464949291E00001400000040340000D1
:10025000000814224114141414140041221408023A
:10026000015909063E415D594E7C1211127C7F49AD
:100270004949363E414141227F4141413E7F494902
:1002800049417F090909013E414151737F0808082E
:100290007F00417F41002040413F017F08142241FF
:1002A0007F404040407F021C027F7F0408107F3E59
:1002B0004141413E7F090909063E4151215E7F09C6
:1002C000192946264949493203017F01033F40402D
:1002D000403F1F2040201F3F4038403F6314081418
:1002E0006303047804036159494D43007F41414150
:1002F0000204081020004141417F04020102044031
:1003000040404040000307080020545478407F28B4
:100310004444383844444428384444287F385454AA
:10032000541800087E090218A4A49C787F080404CD
:100330007800447D40002040403D007F102844006C
:1003400000417F40007C047804787C0804047838FD
:1003500044444438FC1824241818242418FC7C082D
:10036000040408485454542404043F44243C4040AA
:10037000207C1C2040201C3C4030403C442810285D
:10038000444C9090907C4464544C440008364100A6
:100390000000770000004136080002010204023C20
:1003A0002623263C1EA1A161123A4040207A3854EF
:1003B000545559215555794121545478412155546A
:1003C000784020545579400C1E52721239555555BB
:1003D00059395454545939555454580000457C41A6
:1003E0000002457D420001457C40F0292429F0F0BF
:1003F000282528F07C545545002054547C547C0A10
:10040000097F4932494949323248484832324A48DC
:1004100048303A4141217A3A42402078009DA0A0DC
:100420007D39444444393D4040403D3C24FF242430
:10043000487E4943662B2FFC2F2BFF0929F620C04D
:10044000887E090320545479410000447D4130489E
:10045000484A32384040227A007A0A0A727D0D19E1
:10046000317D2629292F28262929292630484D4043
:1004700020380808080808080808382F10C8ACBA3F
:100480002F102834FA00007B000008142A142222BE
:10049000142A14089500220095AA005500AAAA550E
:1004A000AA55AA000000FF00101010FF0014141439
:1004B000FF001010FF00FF1010F010F0141414FCD7
:1004C000001414F700FF0000FF00FF1414F404FCF4
:1004D000141417101F10101F101F1414141F0010D5
:1004E0001010F0000000001F101010101F1010104E
:1004F00010F010000000FF1010101010101010105D
:10050000FF10000000FF140000FF00FF00001F109C
:10051000170000FC04F414141710171414F404F456
:100520000000FF00F714141414141414F700F71447
:100530001414171410101F101F141414F414101096
:10054000F010F000001F101F0000001F140000003A
:10055000FC140000F010F01010FF10FF141414FF32
:10056000141010101F00000000F010FFFFFFFFFF2D
:10057000F0F0F0F0F0FFFFFF0000000000FFFF0FC1
:100580000F0F0F0F38444438447C2A2A3E147E0251
:10059000020606027E027E026355494163384444E6
:1005A0003C04407E201E2006027E020299A5E7A59B
:1005B000991C2A492A1C4C7201724C304A4D4D300C
:1005C0003048784830BC625A463D3E494949007E31
:1005D0000101017E2A2A2A2A2A44445F44444051C8
:1005E0004A444040444A51400000FF0103E080FF7C
:1005F000000008086B6B083612362436060F090F08
:1006000006000018180000001010003040FF010123
:10061000001F01011E00191D1712003C3C3C3C004C
:1006200000000000000006011501260137014A0103
:100630005D01720188019F01B801D201EE010B0238
:100640002A024B026E029302BA02E40210033F0335
:100650007003A403DC03170455049704DD04270585
:100660007505C80520067D06E0064907B8072D0870
:10067000A9082D09B9094D0AEA0A900B400CFA0C99
:10068000C00D910E6F0F5A1053115B1272139A1412
:10069000D41520178018F519801B231DDE1EB420E9
:1006A000A622B524D5F08D14A1C881CFD9F1AF20F1
:1006B000000500000A000B000C000D000001020301
:1006C0009D18400BFC04FD01049F9F9F9F00A119F2
:1006D000A025A000A01EA031A036A0FE007F4949A1
:1006E00049497F22122A7F2A12226A6B147D577D84
:1006F00010282A7A4F1A2A502415457D0515247092
:100700004E487F484E705256327F3256522D2C7DC5
:100710002C473C5549386A5F407F6A161232537A3B
:1007200012167F251B423E4B7A0A7D333E2A7F1FDD
:1007300000000000002F000300033F123F163F1A85
:10074000120824323D2A020100003E41413E000AC7
:10075000070A083E0840200008080800200010088A
:10076000041C2A1C243E20322A24222A1418143E57
:100770002E2A121C2A12023A06142A14242A1C00B9
:1007800024004024000814221414142214080229FE
:100790000612291E3E093E3F251A1E21213F211E19
:1007A0003F25213F05011E21393F083F213F2110F0
:1007B000201F3F043B3F20203F063F3F013E1E21BC
:1007C0001E3F09061E215E3F0936222519013F0101
:1007D0003F203F3F100F3F183F330C33033C0331A2
:1007E0002D23007F41153E15417F0002010240404C
:1007F0004000010218243C3F241818242418243FE8
:10080000182C2C043F0548543C3F0438003D004060
:100810003D003F0834013F003C1C383C043818249C
:10082000187C241818247C3C0804283C14043E241A
:100830003C203C3C100C3C303C2418244C503C24C4
:10084000342C083641007F00413608010101102890
:10085000101F010120203E10200000080025150F68
:10086000241C0C103804180C3828382828183C0888
:100870003C18283820242C3C2C2C1C040808211D52
:1008800007083C0306231E223E22120A3F320F3E77
:100890000A3F0A24130E271E0222223E27120F258A
:1008A00025102119273F222E21160F241B0E251F4C
:1008B0000526261E251D053F0408241F042022228C
:1008C000251927123B1620100F3C013E1F2424211E
:1008D000110F0C031C1A3F1A091927222A2A38273C
:1008E00030320C13053F25023F0E213F2025253FC6
:1008F00025251D07201F3C3F203F20103E223E2380
:10090000110F212118010001020502000000000062
:1009100000000020400000000000002050200000E7
:100920000000005030000000000000606000000087
:10093000000000000018180000000000003636001B
:1009400000000000005636000000000002015109BE
:100950000906000000005F00000000000000007FAA
:1009600041410041417F00000000000000003F01C4
:100970000101004040407E0000000000003F213D9A
:1009800005070070505E427E000000000000007FFE
:1009900063410041637F00000000000808087F08F1
:1009A00008080008080808080808004444445F4490
:1009B00044440041221408142241000808082A086F
:1009C00008080014141414141414001434141C14FF
:1009D00016140008081414142222002222141414DD
:1009E0000808000205023C42422400002B2C782C0F
:1009F0002B000000242A7A2F2A1200001C62322EBB
:100A000023140020545E2541422000422512082470
:100A100052210020623E633E2302002056495522A7
:100A20005840000022147F142200001C2259554D0A
:100A3000120C0000004A555529000004643C173C84
:100A400064040004643C1F3C6404001C22414141D6
:100A5000221C001C3E7F7F7F3E1C001C225D555DDA
:100A6000221C000814224122140800081C3E7F3E6C
:100A70001C08007F41414141417F007F7F7F7F7F94
:100A80007F7F0040704C434C70400040707C7F7C06
:100A9000704000010719611907010001071F7F1F3E
:100AA00007010049221449142249000505057D0566
:100AB000050500080808082A1C0800081C2A080860
:100AC0000808000004027F020400000010207F20BC
:100AD000100000003E414141413E000000427F4085
:100AE0000000000062515149494600002241494935
:100AF00049360000302824227F2000002F4545453C
:100B0000453900003E494949493200000101611957
:100B1000050300003649494949360000264949493C
:100B2000493E000020547E3414600020527F2A1A6F
:100B30004A3000003C4020041800001E20402002E3
:100B400004180000104A4A2A1000000008454545D4
:100B500025180000482A3A4A400000004425153D67
:100B600045400000247E145024000022527F0A4891
:100B70004A340044344F443804180044344F443954
:100B8000041900002A5A4B4E5A0800002A5A4B4EAC
:100B90005B0800000814142241000000081414220D
:100BA0004504003F0004443F0404003F0004443F68
:100BB00004050000205242424240000020524243BD
:100BC00042410000245444475C040000245444473C
:100BD0005C050000003F404040200000003F4041D5
:100BE00040210002020A563F02020002020A563F5A
:100BF00002030004043F44545F440004043F44548F
:100C00005F45000008093D4B4908000008093D4BBD
:100C1000490A00423A072254444400423A07225506
:100C20004445000002124E4B4A32000002124E4B65
:100C30004A33000010104848300000040402222209
:100C4000221C000404022223221D000002021A2595
:100C50004341000002021A2543450000205748483E
:100C60004444000020574849444500120A27525086
:100C70003A24007F00205242424000304E38540F48
:100C800064780024147F0422523C001824124E423F
:100C90002418007F002454543F44007F00245454FF
:100CA0003F45007F002454563D4600023A474041EC
:100CB0003E0400023A4740413E0500023A474043A5
:100CC0003D06004030404D321060004030404D3213
:100CD0001161004030404D321562000804020408E2
:100CE0001010000804020409101100080402040A8C
:100CF0001512007F006A6A7E2A4A007F006A6A7FB6
:100D00002A4B007F006A6A7E2D4A00006A6A6A7F69
:100D10002A4A0030291D4B483C1000122A7F4240CD
:100D2000422400304E38540F443800000A3E4B4AEB
:100D30004A300000080E384614080004071C6203FD
:100D40000A0400001C483E241800001E04523F12F2
:100D5000120C00002050503E480000002050503F30
:100D6000244400001C51494A483000000F424121F0
:100D70001E00000010696D4B49300024147F0402EE
:100D80003E40000010494D4B4930000028187E08B5
:100D900044380024147F0442423C003049251F247B
:100DA0005438004028255735284000100A2E5B7221
:100DB0004A480040300C33404020000004443C14BA
:100DC0000C00000001413D090503000020201078BF
:100DD000040000001010087C0201000018484C2894
:100DE0001800000006424322120E000040487848D6
:100DF0004000002022223E22222000002828587C89
:100E00000800002222124A7F0202000042221F0232
:100E1000427E000042221F02427F000012121F7217
:100E20001210000012121F72131000000844432217
:100E3000120E000008444322120F00080742221E2F
:100E4000020200080742221F0203000042424242FF
:100E5000427E000042424243427F0002024F422251
:100E60001F020002024F42231E030000454A402099
:100E7000100C0000454A4021100D00404222221A69
:100E8000264000404222221B26410004043F4444E5
:100E9000544C0004043F4445544D0000014640209A
:100EA000100F000001464020110F000008444B2A9B
:100EB000120E000008444B2A120F00080A4A3E098D
:100EC000090800080A4A3E0908090000184058208D
:100ED000180000020C424C20100E00020C424C2163
:100EE000100D000405453D050504000405453D05BC
:100EF00004050000007F080810000000007F0809BA
:100F00001001000444241F04040400202222222291
:100F100022200040412515192700002022127B06BF
:100F2000122000404020100807000040300E000250
:100F30000C700040300E00020D710040300E0002B7
:100F40000D7200003F484848444400003F4848496B
:100F5000444500003F48484A4546000002424222BC
:100F6000120E000002424223120F000002424222EF
:100F7000150E0008040204081020000804020409E9
:100F8000102100080402040A1522002414447F04DE
:100F90001424002414447F051425002414447F06DF
:100FA00015220002021222520A0600002125294AB7
:100FB00042000040704C435020400040442414083C
:100FC0003700000008093F4949480000101C680824
:100FD00018000004040F74020A0600004048487814
:100FE000400000202222223E2020000000445454D1
:100FF0007C000000424A4A4A4A7E000004454525DA
:10100000150C00000F4040201F000040201E007FF4
:1010100020100000007F4020100800007E42424265
:10102000427E00000C4444241C0000000642422280
:10103000120E0010121E12127F12002022223A26D7
:101040002220000001454525150F000041424020A7
:10105000100C000006424322120F000048281C48D2
:1010600078000000100C483808000008040408103C
:10107000100800080000080000080004080808081C
:101080000808000808080808080808F0558E716B61
:10109000484D6C0853655548F13343492649F0687B
:1010A0004F6C4D955A080B00020202010009040022
:1010B00000010202000005240010010524010101C5
:1010C00004240206052406000107058103100040E0
:1010D00009040100020A00000007050202400000A6
:1010E000070583024000000403090412010002EF17
:1010F0000201404123368000010102030141726474
:1011000075696E6F204C4C430041726475696E6F57
:10111000204C656F6E6172646F003F1911241FBE11
:10112000CFEFDAE0DEBFCDBF11E0A0E0B1E0EAE54D
:10113000F3E302C005900D92AE35B107D9F726E072
:10114000AEE5B1E001C01D92A03EB207E1F718E0A4
:10115000CEE8D8E004C02197FE010E94A019CD3846
:10116000D107C9F70E944C160C94AB190C940000DF
:10117000CF92DF92EF92FF920F931F93CF93DF9363
:101180006C017A018B01C0E0D0E0CE15DF0589F05B
:10119000D8016D918D01D601ED91FC910190F08106
:1011A000E02DC6010995892B11F47E0102C021961C
:1011B000ECCFC701DF91CF911F910F91FF90EF907E
:1011C000DF90CF9008953FB7F8948091640190919B
:1011D0006501A0916601B091670126B5A89B05C085
:1011E0002F3F19F00196A11DB11D3FBFBA2FA92FA6
:1011F000982F8827820F911DA11DB11DBC01CD0123
:1012000042E0660F771F881F991F4A95D1F708950E
:1012100020916B0190916C01E22FF92FE80FF11DE5
:10122000E80FF11D859194912091690130916A0137
:10123000820F931F08958FB18095807F669B886091
:101240001C9B846008953E9A3F9A81E080936801D8
:1012500008952F923F924F925F926F927F928F925A
:101260009F92AF92BF92CF92DF92EF92FF920F9335
:101270001F93CF93DF93CDB7DEB727970FB6F894C0
:10128000DEBF0FBECDBF9B838A836A30A1F4DC0131
:1012900055962C91559751968D919C915297B8E007
:1012A0002B9F800D911D1124EA81FB81928B818BF4
:1012B000108A1786C1C06D3009F4BEC0AA81BB81F7
:1012C00055964C91559754966C9054976E825396C0
:1012D0007C9053977F825196CD90DC9052971F96C9
:1012E0008D919C91509780389105C4F0AA81BB8163
:1012F00055962C915597422F50E01F968D919C91B9
:101300005097B6E02B9F800D911D1124EA81FB813F
:10131000908B8787268921117AC08EC0F0E4CF1682
:10132000D10424F79C0155E0459F200D311D112467
:1013300012161306DCF6242E312C9601A8E04A9FE3
:10134000200D311D11241216130684F6B5E06B9F93
:10135000B0011124FB01EC5DFE4F2F0150E0F201C2
:10136000B490553009F4B12C7601B8E09B2EB0FC56
:1013700002C08E8001C08F8081100BC06E807F8084
:10138000671007C0B6949A94E20CF31C9110EFCF4B
:1013900033C09C012983622F681B641798F7B7013B
:1013A000E62FEE19E41728F520383105F8F46034FB
:1013B0007105E0F48B01ECE1F1E0A0E16A2E7980A7
:1013C000609ED001A0781124A70D0770E00FF11DD9
:1013D000A490BD83AC83AA59BD4F882019F0EC912D
:1013E000AE2A03C0A094EC91AE22AC926F5F7F4F07
:1013F000D7CF2F5F3F4FCECF5F5F820D931D9201FE
:101400002F5F3F4F2901563009F0A9CF6FCF6AEF08
:1014100064039001659F300D112420583F4F281719
:10142000390754F48A819B81DC01ED91FC91019094
:10143000F081E02D6AE0099581E090E027960FB6F3
:10144000F894DEBF0FBECDBFDF91CF911F910F91FA
:10145000FF90EF90DF90CF90BF90AF909F908F90D4
:101460007F906F905F904F903F902F9008950895D8
:10147000089580E090E008950E94A6198F929F92AF
:10148000AF92BF92CF92DF92EF92FF926B017C01FD
:101490000E94E3084B015C01C114D104E104F10492
:1014A000F1F00E94E308DC01CB0188199909AA092F
:1014B000BB09883E9340A105B10570F321E0C21A33
:1014C000D108E108F10888EE880E83E0981EA11C7F
:1014D000B11CC114D104E104F10419F7DDCFFF9070
:1014E000EF90DF90CF90BF90AF909F908F90089536
:1014F000BC0180E090E00C943E0A1F920F920FB660
:101500000F9211242F933F938F939F93AF93BF9389
:1015100080915B0290915C02A0915D02B0915E02AD
:101520003091630123E0230F2D3720F40196A11D94
:10153000B11D05C026E8230F0296A11DB11D209301
:10154000630180935B0290935C02A0935D02B09371
:101550005E028091640190916501A0916601B09155
:1015600067010196A11DB11D8093640190936501EF
:10157000A0936601B0936701BF91AF919F918F9146
:101580003F912F910F900FBE0F901F9018952F92A3
:101590003F924F925F926F927F928F929F92AF9203
:1015A000BF92CF92DF92EF92FF920F931F93CF9350
:1015B000DF93CDB7DEB764970FB6F894DEBF0FBEEA
:1015C000CDBF23E831E03C8B2B8B0AEA11E02EE6FD
:1015D00031E038872F8338EAE32E31E0F32E40EBF9
:1015E000C42E41E0D42E52EB452E51E0552E6CEA2C
:1015F000262E61E0362E2BEA31E03A8729872EEA43
:1016000031E03C832B8373EBA72E71E0B72E26EAE3
:1016100031E03E832D83E7EA6E2EE1E07E2E25E861
:1016200031E03A832983812C912C1B86AB89BC89BC
:101630009E96EC91EE23F1F0D2018C91482F50E070
:101640002E2F237030E0421753078CF0F0E0F59511
:10165000E795F595E795EE0FFF1FEC5DF94F859146
:101660009491EF81F885928381831C9203C08F5FF0
:10167000F2018083AB89BC89D4969C91D49799233D
:1016800009F43DC0D5968C91482F50E0292F2F7733
:10169000022E000C330B421753076CF197FF06C064
:1016A000E981FA8180818150808305C0A981BA8156
:1016B0008C918F5F8C93E981FA818081811103C0C5
:1016C00081E0808306C0803420F08FE3A981BA8155
:1016D0008C93A981BA81EC91F0E0EE0FFF1FEC5DD5
:1016E000F94F85919491F70191838083AB89BC89EF
:1016F000D5961C9204C08F5FEB89FC8985ABA985C8
:10170000BA855C915523D9F1EB89FC8922A5211179
:1017100028C0D1013C91432F407436FF04C0F7012B
:101720008081918103C0D8018C9190E0850F911D3B
:1017300057FD9A9537FD0DC097FD09C0442379F0F8
:10174000863BB4E29B073CF085EB94E204C080E06A
:1017500090E0442321F0F7019183808302C0D801F7
:101760008C9381E0820FEB89FC8982A730E0D10164
:101770008C918F7390E0281739070CF012A6EB813B
:10178000FC816081662309F44AC0A981BA819C91D9
:10179000992309F444C0F6018081AB89BC899C96E9
:1017A0007C91482F4F7150E0272F2F7130E0421766
:1017B00053071CF48F5F808332C0807E21F480E267
:1017C000F60180830BC0803239F476FD05C06F3F8F
:1017D00019F080E4808302C0F6011082D6018C915A
:1017E000807E69F06F3F29F0262F22952F70920F8F
:1017F00001C090E0803419F4862F8F70980FD501C6
:10180000EC910E2E000CFF0BE90FF11DEE0FFF1FE8
:10181000EC5DF94F85919491F70191838083AB89B9
:10182000BC89D1964C91D197442309F447C0D296F4
:101830003C91632F607436FF04C0F7018081918171
:1018400003C0D8018C9190E0EB89FC8923A950E07A
:1018500027FF03C0840F951F02C0841B950B97FDC3
:1018600009C0662379F0863BF4E29F073CF085EBE4
:1018700094E204C080E090E0662321F0D7018D93CC
:101880009C9302C0F8018083422F4F7150E03F715A
:10189000832F90E04817590734F42F5FAB89BC8938
:1018A000D3962C930BC027FF04C0EB89FC8913AAA5
:1018B00005C080E8AB89BC89D3968C93EB89FC8901
:1018C00081A192A1009709F097C2C4010496B1E0EA
:1018D00001C0BB0F8A95EAF7B88B4BE1489D900198
:1018E000499D300D11243D872C87A6E3A89DC0019A
:1018F000A99D900D11249C012D573E4F3F872E87A7
:10190000AB89BC898D919C911197BC016F5F7F4F12
:101910006D937C93FC014491403428F5A981BA81F0
:101920004C93442321F0F5018081480F4C93A98109
:10193000BA81EC91F0E0EE0FFF1FEC5DF94F85915D
:101940009491F70191838083D1018C91811104C01E
:10195000F2018081D8018C93EB89FC8984A585FFF5
:1019600044C2D60136C1403A08F06DC1242F30E0A0
:10197000205431092C30310509F4E0C00CF050C07E
:101980002530310509F4ACC0BCF42230310509F42E
:10199000A7C04CF42115310509F485C0213031056B
:1019A00009F48DC022C22330310509F4ABC02430C4
:1019B000310509F484C019C22830310509F4A5C0E5
:1019C000E4F42630310509F49DC02730310509F0D3
:1019D0000CC2FB016491AB81BC816C939C012D5FB7
:1019E0003F4FEB89FC8931832083FC013296E491DF
:1019F000AB89BC899C96EC93F8C12A30310509F477
:101A000088C002962B3031050CF088C0AB89BC89A8
:101A100011969C938E93FB0164919E966C93E5C105
:101A20002331310509F4C2C0ACF42F30310509F47B
:101A3000ACC04CF42D30310509F48AC02E3031058C
:101A400009F488C0D2C12131310509F49EC00CF0DF
:101A5000A1C080C02C35310509F4BDC05CF424312F
:101A6000310509F4A7C02531310509F0BEC1AB81AC
:101A7000BC81AFC02E35310509F4D0C00CF4BBC019
:101A80002F35310509F0B1C18091010128898227E4
:101A900080930101D8011C922FEF3FEFEB89FC8965
:101AA00032A321A3A2C10296EB89FC899183808392
:101AB000FB016491D8016C93F201608396C1029698
:101AC000AB89BC898D939C93FB016491A985BA85F0
:101AD0006C93413411F080E401C080E0F1016CC1ED
:101AE000FB016491A985BA856C939C012D5F3F4FE2
:101AF000EB89FC8931832083FC013296E491D1018A
:101B0000EC9373C1E985FA8502C0EB81FC811082F8
:101B10006CC1AB89BC899E961C9267C1EB89FC891C
:101B200091838083FB016491D5018C91062E000C7A
:101B3000770B680F711D87FD7A9508C00296EB89B7
:101B4000FC8991838083FB016491D5016C934DC125
:101B5000F501DDCFFB0125913491AB89BC89D1968C
:101B60002C93D1979C012D5F3F4F2D933C93FC010B
:101B70003296859194914E3411F020E401C020E01A
:101B8000820FEB89FC8982AB30C1AB89BC89D196CD
:101B90001C922BC10296EB89FC8991838083FB0107
:101BA0006491AB89BC89D4966C931FC1EB89FC8985
:101BB00014AA1BC1EFEFAB81BC81EC930296AB89F9
:101BC000BC8911969C938E93FB0164919C966C93B7
:101BD0000CC11C920AC10296EB89FC899183808317
:101BE000FB0164918091820170E0680F711D609328
:101BF000820177270AC00296AB89BC898D939C939A
:101C0000FB0164916093820170E089E09DE30E9492
:101C100078197093620160936101E7C020E030E0C1
:101C2000FB014491F901ED57FE4F40A32A5C3F4F61
:101C30006F5F7F4F283D310599F70596AB89BC89C9
:101C40008D939C93D2C0403E50F450E04F595109BF
:101C5000AB89BC8992965C934E939197C6C0403EE7
:101C6000C1F4AB89BC8980E090E09695982F8827D5
:101C700097958795ED91FD91E4912E2F2F77822BEB
:101C8000E7FDF3CF8F5B9F4FEB89FC8992A381A384
:101C9000ACC04C3F08F4A9C024E0240F223008F067
:101CA00049C04C3F41F00296AB89BC898D939C930F
:101CB000FB01649101C060E0AB89BC89ED91FC91AE
:101CC00011979F012F5F3F4F2D933C93E491D301D8
:101CD0005C91E51759F1AB89BC895F964C91842FD3
:101CE00090E0AD81BE817C91AE85BF85A80FB91F04
:101CF00051967C93519758965C93AC85BD85A80FFF
:101D0000B91FAA0FBB1FAD57BE4F809169019091BB
:101D10006A01281B390B14963C932E9313974F5F3F
:101D2000AB89BC895F964C93D301EC93ED81FE8126
:101D3000608313C04E3F09F041C0AD81BE818C91DC
:101D4000811107C0AB89BC895F96EC91EE2329F025
:101D50000DC08150ED81FE818083D3018C910E9462
:101D60000809EB89FC89918380833FC0E150AB89EE
:101D7000BC895F96EC93F0E0AC85BD85AE0FBF1FCC
:101D8000AA0FBB1FAD57BE4F8091690190916A01A8
:101D900013962D913C911497820F931FAB89BC89A8
:101DA0008D939C932E853F85E20FF31F8189AD8132
:101DB000BE818C93808DF301808317C0AB89BC8971
:101DC00080E090E09695982F882797958795ED91DC
:101DD000FD91E4912E2F2F77822BE7FDF3CF680F33
:101DE000791FAB89BC896D937C93EB89FC8981A1B8
:101DF00092A1009709F484CD8F3FFFEF9F0739F040
:101E00000197AB89BC8992969C938E939197209170
:101E10000101822F90E0082C02C0959587950A94C5
:101E2000E2F780FD15C03B85333041F4D8018C9139
:101E300090E095958795EF81F88509C0D7018D9140
:101E40009C91EF81F88592838183D8018C91808366
:101E5000207F89F590910F028091D901890F90918F
:101E60004502890F9091A301890FE9F023EA31E03F
:101E7000F9018081298B3A8B0E94080929893A89C6
:101E8000F901B09791838083D90112961C921E921A
:101E900011972A5C3F4FB2E02B373B0749F780EFA1
:101EA0008093010108C088EDE3E8F1E011928A9582
:101EB000E9F7109272002B852F5F2B873FEF831A73
:101EC000930A2B893C892A5C3F4F3C8B2B8B0A5C05
:101ED0001F4F2F8138852B5F3F4F38872F8336E385
:101EE000E30EF11C46E3C40ED11C86E3480E511CE0
:101EF00096E3290E311C29853A852A5C3F4F3A87A3
:101F000029872B813C812A5C3F4F3C832B8336E31E
:101F1000A30EB11C2D813E812A5C3F4F3E832D8351
:101F200036E3630E711C29813A812A5C3F4F3A8364
:101F300029833B85343009F079CB64960FB6F89449
:101F4000DEBF0FBECDBFDF91CF911F910F91FF90EC
:101F5000EF90DF90CF90BF90AF909F908F907F9049
:101F60006F905F904F903F902F9008952F922FB6D3
:101F70002F9320915E01209520935E0121F02F91F7
:101F80002FBE2F901895BF93AF930F921F92209161
:101F9000790100907B01020E00927B0120917A0171
:101FA00010907C01121E10927C01B12DB7FDB095EE
:101FB000BB0FA0917801B058BA02110CA12D20914D
:101FC0006F0100907101020E009271012091700169
:101FD00010907201121E10927201212D220F2121E8
:101FE000B0916E0127FDB195AB0F20917401009067
:101FF0007601020E00927601209175011090770112
:10200000121E10927701B091730117FCB195AB0FBE
:10201000B1E000907E0110907F01000C111C17FCB4
:102020000B2616FC0B2600927E0110927F01B091C8
:102030007D0117FCB195AB0FB0910001AB0FA093E0
:10204000CF00B0916001A0915F01119761F0B09352
:102050006001A0935F011F900F90AF91BF912F91EE
:102060002FBE2F901895B0916201A0916101B0939D
:102070006001A0935F0178943F934F935F936F93B8
:102080007F938F939F93EF93FF9311240E94C70A2E
:10209000FF91EF919F918F917F916F915F914F9100
:1020A0003F911F900F90AF91BF912F912FBE2F9016
:1020B0001895FC0180916502811103C08FEF9FEF9D
:1020C00008959FB7F89482E08093E9002091F20090
:1020D00030E01216130614F421E030E0211531052A
:1020E00059F0289884E6809364028091F1008083FF
:1020F0008091F200882319F09FBFC90108958BE6F3
:102100008093E800F9CF2FB7F89483E08093E9003B
:102110009091E800892F807295FF04C09091F200A1
:1021200080E4891B2FBF0895CF93DF931F92CDB713
:10213000DEB76983DC01ED91FC910280F381E02D33
:1021400041E050E0BE016F5F7F4F09950F90DF9136
:10215000CF91089583E08093E9008091F200882375
:1021600019F08AE38093E80008950E94831090E0BC
:102170000895CF93DF931F92CDB7DEB7FC0184851E
:10218000958597FD05C02FEF3FEF358724870BC05E
:10219000CE0101960E945910019719F4898190E0AF
:1021A00002C08FEF9FEF0F90DF91CF9108950F93B3
:1021B0001F93CF93DF931F92CDB7DEB78C01FC0145
:1021C0008485958597FF0EC0CE0101960E94591017
:1021D000019719F4298130E002C02FEF3FEFF80199
:1021E00035872487F801848595850F90DF91CF91FD
:1021F0001F910F910895FC018485958597FD0BC073
:102200009FB7F89482E08093E9008091F2009FBF2D
:1022100090E0019608959FB7F89482E08093E900DA
:102220008091F2009FBF90E008958F929F92AF92AD
:10223000BF92CF92DF92EF92FF920F931F93CF93B3
:10224000DF935C016B017A0180910B01882309F413
:102250005BC080916502882309F456C080916302B7
:1022600080FF05C08091E00082608093E000E7017C
:1022700010E00AEF83E0882E9AE3992E2097D9F197
:102280000E94831081110AC0015009F43DC061E031
:1022900070E080E090E00E943E0AF0CF282F30E00E
:1022A000C217D3070CF48C2F4FB7F8948092E90033
:1022B0009091E80095FF1DC0282F30E0C21BD30B82
:1022C000F601982F915020F081918093F100FACF80
:1022D000C20ED31E112319F09092E80009C080911C
:1022E000E80085FD06C09092E80011E0209709F013
:1022F00010E04FBFC3CF1111C3CF5D9884E6809328
:102300007D061E141F0444F081E090E0F5019383E4
:10231000828380E090E001C0C701DF91CF911F91DF
:102320000F91FF90EF90DF90CF90BF90AF909F9074
:102330008F900895E6E6F2E080E0A0E0B8E000804B
:102340000EBC8111012C1197A0FDFDCF0192B9F7B0
:102350000DB408952F923F924F925F926F927F92A9
:102360008F929F92AF92BF92CF92DF92EF92FF92A5
:102370000F93CF93DF9300D000D000D0CDB7DEB75E
:102380003A01222E312C9C01220D331D37FDE5C070
:10239000803891050CF0E1C09B01285F3F4F283445
:1023A000310508F0DAC09B0177FF04C022273327EC
:1023B000261B370B27703327AB0177FF02C0495F1D
:1023C0005F4FF3E055954795FA95E1F777FF0DC01C
:1023D0004150510968E070E02B01421A530A920102
:1023E0004E3F6FEF560709F4B8C0DA011196B69563
:1023F000BA2FAA27B795A795A80FB91FBD016A598B
:102400007D4F7C836B83BA017695762F662777950F
:102410006795680F791FDB01AA59BD4FBE83AD8355
:102420006D017D01AB80BC804501F30168E070E087
:102430002B01421A530A5A824982BF016619770951
:10244000621573050CF089C08038910509F485C0C8
:1024500097FD63C04F3F6FEF560709F479C0013015
:1024600051F46491022E01C0660F0A94EAF7D70175
:102470005C9065291DC0011111C0649170E0022EAD
:1024800002C0660F771F0A94E2F72B014094509424
:10249000D6016C9170E0642175210AC06491022E0E
:1024A00001C0660F0A94EAF7AD81BE815C90652594
:1024B0006C932115310589F14730510571F10130D7
:1024C00069F4649170E0098002C0759567950A947B
:1024D000E2F7AB81BC815C9065291EC0011111C07F
:1024E000649170E0098002C0759567950A94E2F7DF
:1024F0002B0140945094D4016C9170E064217521BB
:102500000BC0649170E0098002C0759567950A94CC
:10251000E2F7D5015C9065256C9331966B817C81E7
:102520006F5F7F4F7C836B837FEF871A970AAFEFD4
:10253000AA1ABA0A01966D817E816F5F7F4F7E83F2
:102540006D837FEFE71AF70AAFEFCA1ADA0A75CF81
:102550002115310509F0B3CFE0CF26960FB6F894D8
:10256000DEBF0FBECDBFDF91CF910F91FF90EF90F7
:10257000DF90CF90BF90AF909F908F907F906F90A3
:102580005F904F903F902F90089580918206811127
:102590000DC082E080937E0684E080937F061092D7
:1025A00081061092800681E0809382068EE796E095
:1025B00008951F920F920FB60F9211248F939F933D
:1025C0008091E1009091E100937F9093E10083FF7F
:1025D0000FC01092E90091E09093EB001092EC0094
:1025E00092E39093ED001092650298E09093F000D2
:1025F00082FF20C093E09093E9009091F20099232C
:1026000019F09AE39093E80090917D06992339F0B0
:1026100090917D06915090937D06992389F1909138
:102620006402992339F0909164029150909364026E
:10263000992341F184FF10C08091E2008E7E816079
:102640008093E2008091E1008F7E8093E100809191
:1026500063028E7E806111C080FF16C08091E2000F
:102660008E7E80618093E2008091E1008E7E809377
:10267000E100809163028E7E81608093630204C0DA
:102680005D9ACDCF289AD6CF9F918F910F900FBE94
:102690000F901F9018954091DE065091DF06209113
:1026A000DC063091DD0642175307B4F49091E80040
:1026B0009570E1F39091E80092FD19C08093F100CC
:1026C0008091DE069091DF0601968F739927892B02
:1026D00019F48EEF8093E8008091DE069091DF067A
:1026E00001969093DF068093DE0681E0089580E0F6
:1026F0000895CF92DF92EF92FF920F931F93CF93A3
:10270000DF931F92CDB7DEB7182F062FE42E862F4A
:10271000880F8E5F99830E944B1383E00E944B13B6
:10272000F12EC12E9981D92E8C2D8F19801798F4F6
:10273000F601E7FE02C0849101C080810E944B1324
:10274000182F80E00E944B138123FFEFCF1ADF0A7E
:102750008111EACF01C081E00F90DF91CF911F91ED
:102760000F91FF90EF90DF90CF900895DF92EF925E
:10277000FF920F931F93CF93DF93D82E8A017B0193
:10278000E40EF51EEB01CE15DF0571F0D7FE03C098
:10279000FE01849101C088810E944B132196811112
:1027A000F2CF8FEF9FEF01C0C801DF91CF911F9152
:1027B0000F91FF90EF90DF900895615030F02091DD
:1027C000F100FC0120830196F8CF289884E68093DD
:1027D000640208950F931F93CF93DF931F92CDB799
:1027E000DEB782E0898342E450E065EA70E180E888
:1027F0000E94B6130E94C512DC0112960D911C9125
:1028000013970115110569F0D801ED91FC91028033
:10281000F381E02DBE016F5F7F4FC801099597FFDF
:1028200007C089810F90DF91CF911F910F9108957B
:10283000F80100851185E5CF1F920F920FB60F9218
:102840001124CF92DF92EF92FF920F931F932F9359
:102850003F934F935F936F937F938F939F93AF9328
:10286000BF93EF93FF93CF93DF93CDB7DEB76C9712
:10287000DEBFCDBF1092E9008091E80083FFEDC17B
:1028800068E0CE0145960E94DD1382EF8093E80058
:102890008D8987FF05C09091E80090FFFCCF03C0B1
:1028A0009EEF9093E800982F907609F0C6C09E891D
:1028B0002F89188D91110CC0803829F48091DB0686
:1028C0008093F10002C01092F1001092F10048C113
:1028D000422F50E0512B913051F4811141C14130D0
:1028E000510509F03DC18091DB068D7F0BC093300F
:1028F00061F4811135C14130510509F031C1809138
:10290000DB0682608093DB062BC1953041F4809119
:10291000E80080FFFCCF20682093E30021C19630BF
:1029200009F05FC0EB8CFC8C1092E9001092DF067E
:102930001092DE06123091F51092DD061092DC0640
:102940000E94EA1399E0BE016F5F7F4FDB01E92F20
:102950001D92EA95E9F799831A8391E09E8390EAA4
:1029600098879AEF99872091DE063091DF06275FDE
:102970003F4F3C832B838D831092E9001092DF063A
:102980001092DE06F092DD06E092DC0649E050E0AF
:1029900080E00E94B6130E94EA13E2C0F092DD06C6
:1029A000E092DC060E94C512DC011296ED90FC90CC
:1029B0001397E114F10409F4C0C0D701ED91FC9123
:1029C0000480F581E02DBE016B5E7F4FC701099544
:1029D000009719F00CF0C4C0C7C0F701E084F1847F
:1029E000E8CF973009F4C0C0983021F481E080939B
:1029F000F100B6C0993009F0B3C0837009F0B4C0DB
:102A0000E7E5F1E081E021E036E39081992361F090
:102A10008093E9002093EB0091919093EC00309328
:102A2000ED008F5F873089F78EE78093EA00109280
:102A3000EA008F898093650293C08B8D9C8D1092E4
:102A4000E9001092DF061092DE069093DD06809377
:102A5000DC06898D811156C08E899D89913A59F481
:102A6000813209F081C047E050E064E071E080E02D
:102A70000E94B61375C0913209F076C0833289F492
:102A8000888D90E0982F88272F89822BA0E0B0E0D6
:102A900080930C0190930D01A0930E01B0930F0150
:102AA0005FC0803269F48091E80082FFFCCF67E06C
:102AB00084E091E00E94DD138BEF8093E80006C074
:102AC000823209F04DC08F8980930B018091DA0624
:102AD000882319F0EEEFFAE002C0E0E0F8E0809120
:102AE000040190910501A0910601B0910701803B7E
:102AF0009440A105B10509F07BC080910B0180FFD6
:102B000093C076C00E94C512DC0112960D911C91F3
:102B100013970115110541F1D801ED91FC91019038
:102B2000F081E02DBE016B5E7F4FC80109958111D8
:102B300017C0F80100851185ECCF113009F44EC0A3
:102B4000133091F48F89882309F445C0823081F4D1
:102B500040E860E189E091E10E947913882321F047
:102B60008EEF8093E80079C081E28093EB0075C01E
:102B7000813029F440E86BE08DEF90E1EDCF8330B8
:102B800099F70E94C512DC011296ED90FC90139704
:102B90008E010F5F1F4F6801E114F10479F0D70136
:102BA000ED91FC910680F781E02DB801C7010995F0
:102BB000080F111DF701E084F184EECFD8011C92BB
:102BC000F60101900020E9F73197BF016C197D09EA
:102BD00040E0C601C1CF67EE70E102C06BEE70E16C
:102BE0006115710509F2FB01449150E080E840CF86
:102BF0000FB6F894A895809160008861809360007A
:102C0000109260000FBEA895EE3F2AE0F20739F05F
:102C10008091FE0A9091FF0A91838083A1CF109248
:102C2000FF0A1092FE0A9CCFEE3F8AE0F80731F0CF
:102C3000808191819093FF0A8093FE0A87E797E74E
:102C4000918380839BE088E10FB6F894A8958093E8
:102C500060000FBE9093600083CF6C960FB6F8941F
:102C6000DEBF0FBECDBFDF91CF91FF91EF91BF913E
:102C7000AF919F918F917F916F915F914F913F9114
:102C80002F911F910F91FF90EF90DF90CF900F90B9
:102C90000FBE0F901F901895789484B5826084BD04
:102CA00084B5816084BD85B5826085BD85B5816050
:102CB00085BD80916E00816080936E0010928100CE
:102CC0008091810082608093810080918100816089
:102CD000809381008091800081608093800080914A
:102CE0009100826080939100809191008160809337
:102CF0009100809190008160809390008091C1004C
:102D000084608093C1008091C10082608093C10083
:102D10008091C10081608093C1008091C300816077
:102D20008093C3008091C00082608093C000809136
:102D3000C20081608093C20080917A008460809399
:102D40007A0080917A00826080937A0080917A0084
:102D5000816080937A0080917A00806880937A0005
:102D6000109265021092DB06109263028091D700E8
:102D700081608093D70080EA8093D80089B5806114
:102D800089BD89B5826089BD09B400FEFDCF61E0CF
:102D900070E080E090E00E943E0A8091D8008F7C35
:102DA00080618093D8008091E000807F8093E00074
:102DB0008091E1008E7E8093E1008DE08093E200BF
:102DC000559A209AEEEFFFE7859194918B3F9C4DA9
:102DD00019F481E08093DA0681EC80937C0085B160
:102DE000806F85B984B1877E84B984B1876E84B9D8
:102DF0005E9A5F988AB1806D8AB9769A6E9881B32F
:102E0000806F81BB899880B38D7080BB80E58CBD5D
:102E100081E08DBD85E090E00E94780A5F9A85E0B0
:102E200090E00E94780A5E985C98E4EAF6E08DE013
:102E30008E0F94919EBD00000DB407FEFDCF31961C
:102E40008E13F7CF5C9A81E88093640080916500CF
:102E50008160809365000E949A1182E090E00E9458
:102E60007019882319F00E94230904C01092680188
:102E70003E983F9882E390E00E94780A0E941B09E6
:102E80008111F8CF81E2809371060E94230988EDB9
:102E9000E3E8F1E0DF011D928A95E9F780EF809386
:102EA000010189E18093820181E792E090936201C0
:102EB0008093610181E090E090937F0180937E0197
:102EC00090934B0280934A0282E48093C00081E099
:102ED0008093C1008FEF8093D10080E88093CF0072
:102EE00084E080937200E1EBF6E0C491C0936D0141
:102EF00082EB96E090936C0180936B01D0E0CC0F55
:102F0000DD1FCE54D94FCE01049690936A01809371
:102F1000690103E811E0E12CF12CFE01EE0DFF1D2B
:102F200084910E940809F80191838083FFEFEF1AD2
:102F3000FF0A0A5C1F4F24E0E216F10471F756E61F
:102F4000A52E52E0B52E8BE890E16AE1462E480EA0
:102F500070E0872E70E0972E512C8FB7F894409137
:102F60005B0250915C0260915D0270915E028FBFC6
:102F700080917206942F981B892F90917306992344
:102F800029F080937406109273062EC190917106F9
:102F9000891748F48F5F891708F026C181E083BF45
:102FA000889513BE21C181E0809373064093720619
:102FB00080916D0690916E06019690936E068093B7
:102FC0006D06809162028F5F80936202853038F0D7
:102FD000809161028F5F8093610210926202809102
:102FE0006102823010F0109261020E941B0987FF7B
:102FF0000AC081E08093600286E080935F02809146
:10300000030181500CC00E941B0984FF0BC081E0AA
:103010008093600210925F02809103018F5F809322
:10302000030120C00E941B0986FF0AC081E0809333
:10303000600282E080935F02809102018F5F0DC089
:103040000E941B0985FF0CC081E08093600284E030
:1030500080935F028091020181508093020102C03F
:1030600010926002852DF50181118FEF002481936C
:103070008193819381930394D1F7109278061092F3
:10308000770610927606109275063BE8E32E30E143
:10309000F32E10E0D0E0C0E047E0342EF701449179
:1030A000413F29F0423F29F0403F29F46BC011EF26
:1030B0006AC012EF68C0113FE9F0123F09F440C046
:1030C000403F08F05FC08C2F90E08937910514F0E5
:1030D000D85FC0E0F8E04F9FA0011124455F564F34
:1030E0006D2F70E001E028E08C2F90E00E94AA1183
:1030F000C85F48C04E3908F046C08C2F90E08D372D
:10310000910514F0D85FC0E0CD2ED12C6C2E712C1F
:1031100050E0CA01880F991F480F591F4F5C584F44
:1031200001E023E0B601C3010E94AA1121E040E3BF
:1031300057E0B601C30103960E94AA11CC5F23C0D9
:103140004C3008F58C2F90E08937910514F0D85F4A
:10315000C0E0CD2ED12C6C2E712C349EA0011124F8
:103160004452594F01E027E0B601C3010E94AA1161
:1031700021E040E357E0B601C30107960E94AA117F
:10318000C85F01C010EF2FEFE21AF20A4E1086CF8F
:1031900080916002811102C01092610280916102EF
:1031A000C0915F02D0E0C80FD11DC0900301D12CA7
:1031B000E0900201F12CCC0FDD1FFE01E05EFE4F1E
:1031C0004081518101E028E0B601C7010E94AA11A7
:1031D000C05FDE4F4881598100E028E0B601C70199
:1031E0000E94AA110E949A118114910409F4B5CE8B
:1031F0000E940000B1CE0F931F93CF93DF938C01F9
:1032000081E090E00E94701980FF31C08AE090E078
:103210000E9470199FEF980F9E3F48F522E330E01F
:10322000D80150963C932E931F9728E330E0529696
:103230003C932E935197CBE0D0E0D801ED91FC91D7
:103240000190F081E02D682FC8010995CE010E9400
:1032500070192196C131D10581F70E949A1188EE2B
:1032600093E0DF91CF911F910F910C94780ADF9139
:10327000CF911F910F91089504970C94FB18EAE8E1
:10328000F6E01382128288EE93E0A0E0B0E084833F
:103290009583A683B78384E391E0918380838FEF46
:1032A0009FEF95878487E6E6F6E013821282118607
:1032B000128680E1838710861782158686E491E066
:1032C0009183808384E591E095838483108A1786B7
:1032D000128A118A81E0838B148A858B168A08955D
:1032E000F999FECF92BD81BDF89A992780B50895CE
:1032F00097FB072E16F4009407D077FD09D00E94A3
:103300008C1907FC05D03EF4909581959F4F089548
:10331000709561957F4F0895AA1BBB1B51E107C0B3
:10332000AA1FBB1FA617B70710F0A61BB70B881F55
:10333000991F5A95A9F780959095BC01CD010895E4
:10334000EE0FFF1F0590F491E02D099481E090E0CD
:0A335000F8940C94AB19F894FFCF29
:10335A0080F0202000E1000000000000FFFFFFFFD6
:10336A00D400D400CC00C400BC00B400AC00AC0053
:10337A0014010C010401FC00F400EC00E400DC0080
:10338A000000000094101511B510AA10FB10B91016
:10339A00D710000000002909B808390A380AFB18B2
:0E33AA00FCFF00003C1900C180810000000003
:00000001FF
